{
    "_format": "hh-sol-artifact-1",
    "contractName": "Transactions",
    "sourceName": "contracts/Transactions.sol",
    "abi": [
        {
            "inputs": [],
            "stateMutability": "nonpayable",
            "type": "constructor"
        },
        {
            "anonymous": false,
            "inputs": [
                {
                    "indexed": true,
                    "internalType": "address",
                    "name": "sender",
                    "type": "address"
                },
                {
                    "indexed": true,
                    "internalType": "address",
                    "name": "receiver",
                    "type": "address"
                },
                {
                    "indexed": false,
                    "internalType": "uint256",
                    "name": "amount",
                    "type": "uint256"
                },
                {
                    "indexed": false,
                    "internalType": "string",
                    "name": "remark",
                    "type": "string"
                },
                {
                    "indexed": false,
                    "internalType": "uint256",
                    "name": "timestamp",
                    "type": "uint256"
                }
            ],
            "name": "Transfer",
            "type": "event"
        },
        {
            "inputs": [],
            "name": "getAllTransactions",
            "outputs": [
                {
                    "components": [
                        {
                            "internalType": "address",
                            "name": "sender",
                            "type": "address"
                        },
                        {
                            "internalType": "address",
                            "name": "receiver",
                            "type": "address"
                        },
                        {
                            "internalType": "uint256",
                            "name": "amount",
                            "type": "uint256"
                        },
                        {
                            "internalType": "string",
                            "name": "remark",
                            "type": "string"
                        },
                        {
                            "internalType": "uint256",
                            "name": "timestamp",
                            "type": "uint256"
                        }
                    ],
                    "internalType": "struct Transactions.TransferStruct[]",
                    "name": "",
                    "type": "tuple[]"
                }
            ],
            "stateMutability": "view",
            "type": "function"
        },
        {
            "inputs": [
                {
                    "internalType": "address",
                    "name": "addr",
                    "type": "address"
                }
            ],
            "name": "getBalance",
            "outputs": [
                {
                    "internalType": "uint256",
                    "name": "",
                    "type": "uint256"
                }
            ],
            "stateMutability": "view",
            "type": "function"
        },
        {
            "inputs": [],
            "name": "getOwner",
            "outputs": [
                {
                    "internalType": "address",
                    "name": "",
                    "type": "address"
                }
            ],
            "stateMutability": "view",
            "type": "function"
        },
        {
            "inputs": [],
            "name": "getTransactionsCount",
            "outputs": [
                {
                    "internalType": "uint256",
                    "name": "",
                    "type": "uint256"
                }
            ],
            "stateMutability": "view",
            "type": "function"
        },
        {
            "inputs": [
                {
                    "internalType": "address payable",
                    "name": "receiver",
                    "type": "address"
                },
                {
                    "internalType": "uint256",
                    "name": "amount",
                    "type": "uint256"
                },
                {
                    "internalType": "string",
                    "name": "remark",
                    "type": "string"
                }
            ],
            "name": "sendMoney",
            "outputs": [
                {
                    "internalType": "bool",
                    "name": "success",
                    "type": "bool"
                }
            ],
            "stateMutability": "nonpayable",
            "type": "function"
        }
    ],
    "bytecode": "0x608060405234801561001057600080fd5b50336000806101000a81548173ffffffffffffffffffffffffffffffffffffffff021916908373ffffffffffffffffffffffffffffffffffffffff1602179055503373ffffffffffffffffffffffffffffffffffffffff1631600260003273ffffffffffffffffffffffffffffffffffffffff1673ffffffffffffffffffffffffffffffffffffffff16815260200190815260200160002081905550610e3d806100bb6000396000f3fe608060405234801561001057600080fd5b50600436106100575760003560e01c8063125c5df71461005c57806327506f531461008c578063578cb8f9146100aa578063893d20e8146100c8578063f8b2cb4f146100e6575b600080fd5b61007660048036038101906100719190610901565b610116565b604051610083919061098b565b60405180910390f35b610094610443565b6040516100a19190610b96565b60405180910390f35b6100b26105f4565b6040516100bf9190610bc7565b60405180910390f35b6100d06105fe565b6040516100dd9190610bf1565b60405180910390f35b61010060048036038101906100fb9190610c38565b610627565b60405161010d9190610bc7565b60405180910390f35b600082600260008060009054906101000a900473ffffffffffffffffffffffffffffffffffffffff1673ffffffffffffffffffffffffffffffffffffffff1673ffffffffffffffffffffffffffffffffffffffff168152602001908152602001600020541015610189576000905061043c565b82600260008060009054906101000a900473ffffffffffffffffffffffffffffffffffffffff1673ffffffffffffffffffffffffffffffffffffffff1673ffffffffffffffffffffffffffffffffffffffff16815260200190815260200160002060008282546101f99190610c94565b9250508190555082600260008673ffffffffffffffffffffffffffffffffffffffff1673ffffffffffffffffffffffffffffffffffffffff168152602001908152602001600020600082825461024f9190610cc8565b9250508190555060018060008282546102689190610cc8565b9250508190555060036040518060a0016040528060008054906101000a900473ffffffffffffffffffffffffffffffffffffffff1673ffffffffffffffffffffffffffffffffffffffff1681526020018673ffffffffffffffffffffffffffffffffffffffff16815260200185815260200184815260200142815250908060018154018082558091505060019003906000526020600020906005020160009091909190915060008201518160000160006101000a81548173ffffffffffffffffffffffffffffffffffffffff021916908373ffffffffffffffffffffffffffffffffffffffff16021790555060208201518160010160006101000a81548173ffffffffffffffffffffffffffffffffffffffff021916908373ffffffffffffffffffffffffffffffffffffffff1602179055506040820151816002015560608201518160030190805190602001906103c1929190610670565b506080820151816004015550508373ffffffffffffffffffffffffffffffffffffffff163373ffffffffffffffffffffffffffffffffffffffff167fc4b32d7ff75a51e487f3cbb5d3202f2efecca1f4c2b987e0039c1d3220b48a8385854260405161042f93929190610d68565b60405180910390a3600190505b9392505050565b60606003805480602002602001604051908101604052809291908181526020016000905b828210156105eb57838290600052602060002090600502016040518060a00160405290816000820160009054906101000a900473ffffffffffffffffffffffffffffffffffffffff1673ffffffffffffffffffffffffffffffffffffffff1673ffffffffffffffffffffffffffffffffffffffff1681526020016001820160009054906101000a900473ffffffffffffffffffffffffffffffffffffffff1673ffffffffffffffffffffffffffffffffffffffff1673ffffffffffffffffffffffffffffffffffffffff1681526020016002820154815260200160038201805461055090610dd5565b80601f016020809104026020016040519081016040528092919081815260200182805461057c90610dd5565b80156105c95780601f1061059e576101008083540402835291602001916105c9565b820191906000526020600020905b8154815290600101906020018083116105ac57829003601f168201915b5050505050815260200160048201548152505081526020019060010190610467565b50505050905090565b6000600154905090565b60008060009054906101000a900473ffffffffffffffffffffffffffffffffffffffff16905090565b6000600260008373ffffffffffffffffffffffffffffffffffffffff1673ffffffffffffffffffffffffffffffffffffffff168152602001908152602001600020549050919050565b82805461067c90610dd5565b90600052602060002090601f01602090048101928261069e57600085556106e5565b82601f106106b757805160ff19168380011785556106e5565b828001600101855582156106e5579182015b828111156106e45782518255916020019190600101906106c9565b5b5090506106f291906106f6565b5090565b5b8082111561070f5760008160009055506001016106f7565b5090565b6000604051905090565b600080fd5b600080fd5b600073ffffffffffffffffffffffffffffffffffffffff82169050919050565b600061075282610727565b9050919050565b61076281610747565b811461076d57600080fd5b50565b60008135905061077f81610759565b92915050565b6000819050919050565b61079881610785565b81146107a357600080fd5b50565b6000813590506107b58161078f565b92915050565b600080fd5b600080fd5b6000601f19601f8301169050919050565b7f4e487b7100000000000000000000000000000000000000000000000000000000600052604160045260246000fd5b61080e826107c5565b810181811067ffffffffffffffff8211171561082d5761082c6107d6565b5b80604052505050565b6000610840610713565b905061084c8282610805565b919050565b600067ffffffffffffffff82111561086c5761086b6107d6565b5b610875826107c5565b9050602081019050919050565b82818337600083830152505050565b60006108a461089f84610851565b610836565b9050828152602081018484840111156108c0576108bf6107c0565b5b6108cb848285610882565b509392505050565b600082601f8301126108e8576108e76107bb565b5b81356108f8848260208601610891565b91505092915050565b60008060006060848603121561091a5761091961071d565b5b600061092886828701610770565b9350506020610939868287016107a6565b925050604084013567ffffffffffffffff81111561095a57610959610722565b5b610966868287016108d3565b9150509250925092565b60008115159050919050565b61098581610970565b82525050565b60006020820190506109a0600083018461097c565b92915050565b600081519050919050565b600082825260208201905092915050565b6000819050602082019050919050565b60006109dd82610727565b9050919050565b6109ed816109d2565b82525050565b6109fc81610785565b82525050565b600081519050919050565b600082825260208201905092915050565b60005b83811015610a3c578082015181840152602081019050610a21565b83811115610a4b576000848401525b50505050565b6000610a5c82610a02565b610a668185610a0d565b9350610a76818560208601610a1e565b610a7f816107c5565b840191505092915050565b600060a083016000830151610aa260008601826109e4565b506020830151610ab560208601826109e4565b506040830151610ac860408601826109f3565b5060608301518482036060860152610ae08282610a51565b9150506080830151610af560808601826109f3565b508091505092915050565b6000610b0c8383610a8a565b905092915050565b6000602082019050919050565b6000610b2c826109a6565b610b3681856109b1565b935083602082028501610b48856109c2565b8060005b85811015610b845784840389528151610b658582610b00565b9450610b7083610b14565b925060208a01995050600181019050610b4c565b50829750879550505050505092915050565b60006020820190508181036000830152610bb08184610b21565b905092915050565b610bc181610785565b82525050565b6000602082019050610bdc6000830184610bb8565b92915050565b610beb816109d2565b82525050565b6000602082019050610c066000830184610be2565b92915050565b610c15816109d2565b8114610c2057600080fd5b50565b600081359050610c3281610c0c565b92915050565b600060208284031215610c4e57610c4d61071d565b5b6000610c5c84828501610c23565b91505092915050565b7f4e487b7100000000000000000000000000000000000000000000000000000000600052601160045260246000fd5b6000610c9f82610785565b9150610caa83610785565b925082821015610cbd57610cbc610c65565b5b828203905092915050565b6000610cd382610785565b9150610cde83610785565b9250827fffffffffffffffffffffffffffffffffffffffffffffffffffffffffffffffff03821115610d1357610d12610c65565b5b828201905092915050565b600082825260208201905092915050565b6000610d3a82610a02565b610d448185610d1e565b9350610d54818560208601610a1e565b610d5d816107c5565b840191505092915050565b6000606082019050610d7d6000830186610bb8565b8181036020830152610d8f8185610d2f565b9050610d9e6040830184610bb8565b949350505050565b7f4e487b7100000000000000000000000000000000000000000000000000000000600052602260045260246000fd5b60006002820490506001821680610ded57607f821691505b60208210811415610e0157610e00610da6565b5b5091905056fea2646970667358221220920c31e7c912ccdc36d5fe8b46116d8dbd7f3f10030e97fd8e358ccfa638996f64736f6c63430008090033",
    "linkReferences": {},
    "deployedLinkReferences": {}
}